{
  "_format": "hh-sol-artifact-1",
  "contractName": "ProofOfDonation",
  "sourceName": "contracts/podpolygon.sol",
  "abi": [
    {
      "inputs": [],
      "stateMutability": "nonpayable",
      "type": "constructor"
    },
    {
      "anonymous": false,
      "inputs": [
        {
          "indexed": true,
          "internalType": "address",
          "name": "owner",
          "type": "address"
        },
        {
          "indexed": true,
          "internalType": "address",
          "name": "approved",
          "type": "address"
        },
        {
          "indexed": true,
          "internalType": "uint256",
          "name": "tokenId",
          "type": "uint256"
        }
      ],
      "name": "Approval",
      "type": "event"
    },
    {
      "anonymous": false,
      "inputs": [
        {
          "indexed": true,
          "internalType": "address",
          "name": "owner",
          "type": "address"
        },
        {
          "indexed": true,
          "internalType": "address",
          "name": "operator",
          "type": "address"
        },
        {
          "indexed": false,
          "internalType": "bool",
          "name": "approved",
          "type": "bool"
        }
      ],
      "name": "ApprovalForAll",
      "type": "event"
    },
    {
      "anonymous": false,
      "inputs": [
        {
          "indexed": true,
          "internalType": "address",
          "name": "previousOwner",
          "type": "address"
        },
        {
          "indexed": true,
          "internalType": "address",
          "name": "newOwner",
          "type": "address"
        }
      ],
      "name": "OwnershipTransferred",
      "type": "event"
    },
    {
      "anonymous": false,
      "inputs": [
        {
          "indexed": true,
          "internalType": "address",
          "name": "from",
          "type": "address"
        },
        {
          "indexed": true,
          "internalType": "address",
          "name": "to",
          "type": "address"
        },
        {
          "indexed": true,
          "internalType": "uint256",
          "name": "tokenId",
          "type": "uint256"
        }
      ],
      "name": "Transfer",
      "type": "event"
    },
    {
      "inputs": [
        {
          "internalType": "address",
          "name": "poolContractAddress",
          "type": "address"
        },
        {
          "internalType": "string",
          "name": "uri",
          "type": "string"
        }
      ],
      "name": "addPool",
      "outputs": [],
      "stateMutability": "nonpayable",
      "type": "function"
    },
    {
      "inputs": [
        {
          "internalType": "address",
          "name": "to",
          "type": "address"
        },
        {
          "internalType": "uint256",
          "name": "tokenId",
          "type": "uint256"
        }
      ],
      "name": "approve",
      "outputs": [],
      "stateMutability": "nonpayable",
      "type": "function"
    },
    {
      "inputs": [
        {
          "internalType": "address",
          "name": "owner",
          "type": "address"
        }
      ],
      "name": "balanceOf",
      "outputs": [
        {
          "internalType": "uint256",
          "name": "",
          "type": "uint256"
        }
      ],
      "stateMutability": "view",
      "type": "function"
    },
    {
      "inputs": [
        {
          "internalType": "uint256",
          "name": "tokenId",
          "type": "uint256"
        }
      ],
      "name": "burn",
      "outputs": [],
      "stateMutability": "nonpayable",
      "type": "function"
    },
    {
      "inputs": [
        {
          "internalType": "uint256",
          "name": "tokenId",
          "type": "uint256"
        }
      ],
      "name": "getApproved",
      "outputs": [
        {
          "internalType": "address",
          "name": "",
          "type": "address"
        }
      ],
      "stateMutability": "view",
      "type": "function"
    },
    {
      "inputs": [
        {
          "internalType": "address",
          "name": "owner",
          "type": "address"
        },
        {
          "internalType": "address",
          "name": "operator",
          "type": "address"
        }
      ],
      "name": "isApprovedForAll",
      "outputs": [
        {
          "internalType": "bool",
          "name": "",
          "type": "bool"
        }
      ],
      "stateMutability": "view",
      "type": "function"
    },
    {
      "inputs": [
        {
          "internalType": "address",
          "name": "",
          "type": "address"
        },
        {
          "internalType": "address",
          "name": "",
          "type": "address"
        }
      ],
      "name": "minters",
      "outputs": [
        {
          "internalType": "uint256",
          "name": "",
          "type": "uint256"
        }
      ],
      "stateMutability": "view",
      "type": "function"
    },
    {
      "inputs": [],
      "name": "name",
      "outputs": [
        {
          "internalType": "string",
          "name": "",
          "type": "string"
        }
      ],
      "stateMutability": "view",
      "type": "function"
    },
    {
      "inputs": [],
      "name": "owner",
      "outputs": [
        {
          "internalType": "address",
          "name": "",
          "type": "address"
        }
      ],
      "stateMutability": "view",
      "type": "function"
    },
    {
      "inputs": [
        {
          "internalType": "uint256",
          "name": "tokenId",
          "type": "uint256"
        }
      ],
      "name": "ownerOf",
      "outputs": [
        {
          "internalType": "address",
          "name": "",
          "type": "address"
        }
      ],
      "stateMutability": "view",
      "type": "function"
    },
    {
      "inputs": [
        {
          "internalType": "address",
          "name": "",
          "type": "address"
        }
      ],
      "name": "poolAddressToURI",
      "outputs": [
        {
          "internalType": "string",
          "name": "",
          "type": "string"
        }
      ],
      "stateMutability": "view",
      "type": "function"
    },
    {
      "inputs": [],
      "name": "renounceOwnership",
      "outputs": [],
      "stateMutability": "nonpayable",
      "type": "function"
    },
    {
      "inputs": [
        {
          "internalType": "address",
          "name": "poolContractAddress",
          "type": "address"
        }
      ],
      "name": "safeMint",
      "outputs": [],
      "stateMutability": "nonpayable",
      "type": "function"
    },
    {
      "inputs": [
        {
          "internalType": "address",
          "name": "from",
          "type": "address"
        },
        {
          "internalType": "address",
          "name": "to",
          "type": "address"
        },
        {
          "internalType": "uint256",
          "name": "tokenId",
          "type": "uint256"
        }
      ],
      "name": "safeTransferFrom",
      "outputs": [],
      "stateMutability": "nonpayable",
      "type": "function"
    },
    {
      "inputs": [
        {
          "internalType": "address",
          "name": "from",
          "type": "address"
        },
        {
          "internalType": "address",
          "name": "to",
          "type": "address"
        },
        {
          "internalType": "uint256",
          "name": "tokenId",
          "type": "uint256"
        },
        {
          "internalType": "bytes",
          "name": "data",
          "type": "bytes"
        }
      ],
      "name": "safeTransferFrom",
      "outputs": [],
      "stateMutability": "nonpayable",
      "type": "function"
    },
    {
      "inputs": [
        {
          "internalType": "address",
          "name": "operator",
          "type": "address"
        },
        {
          "internalType": "bool",
          "name": "approved",
          "type": "bool"
        }
      ],
      "name": "setApprovalForAll",
      "outputs": [],
      "stateMutability": "nonpayable",
      "type": "function"
    },
    {
      "inputs": [
        {
          "internalType": "bytes4",
          "name": "interfaceId",
          "type": "bytes4"
        }
      ],
      "name": "supportsInterface",
      "outputs": [
        {
          "internalType": "bool",
          "name": "",
          "type": "bool"
        }
      ],
      "stateMutability": "view",
      "type": "function"
    },
    {
      "inputs": [],
      "name": "symbol",
      "outputs": [
        {
          "internalType": "string",
          "name": "",
          "type": "string"
        }
      ],
      "stateMutability": "view",
      "type": "function"
    },
    {
      "inputs": [
        {
          "internalType": "uint256",
          "name": "tokenId",
          "type": "uint256"
        }
      ],
      "name": "tokenURI",
      "outputs": [
        {
          "internalType": "string",
          "name": "",
          "type": "string"
        }
      ],
      "stateMutability": "view",
      "type": "function"
    },
    {
      "inputs": [
        {
          "internalType": "address",
          "name": "from",
          "type": "address"
        },
        {
          "internalType": "address",
          "name": "to",
          "type": "address"
        },
        {
          "internalType": "uint256",
          "name": "tokenId",
          "type": "uint256"
        }
      ],
      "name": "transferFrom",
      "outputs": [],
      "stateMutability": "nonpayable",
      "type": "function"
    },
    {
      "inputs": [
        {
          "internalType": "address",
          "name": "newOwner",
          "type": "address"
        }
      ],
      "name": "transferOwnership",
      "outputs": [],
      "stateMutability": "nonpayable",
      "type": "function"
    }
  ],
  "bytecode": "0x60806040523480156200001157600080fd5b506040518060400160405280600f81526020017f50726f6f664f66446f6e6174696f6e00000000000000000000000000000000008152506040518060400160405280600381526020017f504f440000000000000000000000000000000000000000000000000000000000815250816000908051906020019062000096929190620001a6565b508060019080519060200190620000af929190620001a6565b505050620000d2620000c6620000d860201b60201c565b620000e060201b60201c565b620002bb565b600033905090565b6000600760009054906101000a900473ffffffffffffffffffffffffffffffffffffffff16905081600760006101000a81548173ffffffffffffffffffffffffffffffffffffffff021916908373ffffffffffffffffffffffffffffffffffffffff1602179055508173ffffffffffffffffffffffffffffffffffffffff168173ffffffffffffffffffffffffffffffffffffffff167f8be0079c531659141344cd1fd0a4f28419497f9722a3daafe3b4186f6b6457e060405160405180910390a35050565b828054620001b49062000256565b90600052602060002090601f016020900481019282620001d8576000855562000224565b82601f10620001f357805160ff191683800117855562000224565b8280016001018555821562000224579182015b828111156200022357825182559160200191906001019062000206565b5b50905062000233919062000237565b5090565b5b808211156200025257600081600090555060010162000238565b5090565b600060028204905060018216806200026f57607f821691505b602082108114156200028657620002856200028c565b5b50919050565b7f4e487b7100000000000000000000000000000000000000000000000000000000600052602260045260246000fd5b61321b80620002cb6000396000f3fe608060405234801561001057600080fd5b50600436106101375760003560e01c8063704dc09b116100b857806395d89b411161007c57806395d89b411461034a578063a22cb46514610368578063b88d4fde14610384578063c87b56dd146103a0578063e985e9c5146103d0578063f2fde38b1461040057610137565b8063704dc09b146102a657806370a08231146102c2578063715018a6146102f25780638da5cb5b146102fc578063939ca6fa1461031a57610137565b806340d097c3116100ff57806340d097c3146101f257806342842e0e1461020e57806342966c681461022a5780636352211e146102465780636df511081461027657610137565b806301ffc9a71461013c57806306fdde031461016c578063081812fc1461018a578063095ea7b3146101ba57806323b872dd146101d6575b600080fd5b61015660048036038101906101519190612438565b61041c565b60405161016391906127f8565b60405180910390f35b6101746104fe565b6040516101819190612813565b60405180910390f35b6101a4600480360381019061019f919061248a565b610590565b6040516101b19190612791565b60405180910390f35b6101d460048036038101906101cf91906123fc565b6105d6565b005b6101f060048036038101906101eb91906122a2565b6106ee565b005b61020c6004803603810190610207919061223d565b61074e565b005b610228600480360381019061022391906122a2565b61094f565b005b610244600480360381019061023f919061248a565b61096f565b005b610260600480360381019061025b919061248a565b6109cb565b60405161026d9190612791565b60405180910390f35b610290600480360381019061028b9190612266565b610a7d565b60405161029d91906129f5565b60405180910390f35b6102c060048036038101906102bb91906123a8565b610aa2565b005b6102dc60048036038101906102d7919061223d565b610b02565b6040516102e991906129f5565b60405180910390f35b6102fa610bba565b005b610304610bce565b6040516103119190612791565b60405180910390f35b610334600480360381019061032f919061223d565b610bf8565b6040516103419190612813565b60405180910390f35b610352610c98565b60405161035f9190612813565b60405180910390f35b610382600480360381019061037d919061236c565b610d2a565b005b61039e600480360381019061039991906122f1565b610d40565b005b6103ba60048036038101906103b5919061248a565b610da2565b6040516103c79190612813565b60405180910390f35b6103ea60048036038101906103e59190612266565b610db4565b6040516103f791906127f8565b60405180910390f35b61041a6004803603810190610415919061223d565b610e48565b005b60007f80ac58cd000000000000000000000000000000000000000000000000000000007bffffffffffffffffffffffffffffffffffffffffffffffffffffffff1916827bffffffffffffffffffffffffffffffffffffffffffffffffffffffff191614806104e757507f5b5e139f000000000000000000000000000000000000000000000000000000007bffffffffffffffffffffffffffffffffffffffffffffffffffffffff1916827bffffffffffffffffffffffffffffffffffffffffffffffffffffffff1916145b806104f757506104f682610ecc565b5b9050919050565b60606000805461050d90612c4b565b80601f016020809104026020016040519081016040528092919081815260200182805461053990612c4b565b80156105865780601f1061055b57610100808354040283529160200191610586565b820191906000526020600020905b81548152906001019060200180831161056957829003601f168201915b5050505050905090565b600061059b82610f36565b6004600083815260200190815260200160002060009054906101000a900473ffffffffffffffffffffffffffffffffffffffff169050919050565b60006105e1826109cb565b90508073ffffffffffffffffffffffffffffffffffffffff168373ffffffffffffffffffffffffffffffffffffffff161415610652576040517f08c379a0000000000000000000000000000000000000000000000000000000008152600401610649906129b5565b60405180910390fd5b8073ffffffffffffffffffffffffffffffffffffffff16610671610f81565b73ffffffffffffffffffffffffffffffffffffffff1614806106a0575061069f8161069a610f81565b610db4565b5b6106df576040517f08c379a00000000000000000000000000000000000000000000000000000000081526004016106d690612935565b60405180910390fd5b6106e98383610f89565b505050565b6106ff6106f9610f81565b82611042565b61073e576040517f08c379a0000000000000000000000000000000000000000000000000000000008152600401610735906129d5565b60405180910390fd5b6107498383836110d7565b505050565b6000600960003373ffffffffffffffffffffffffffffffffffffffff1673ffffffffffffffffffffffffffffffffffffffff16815260200190815260200160002060008373ffffffffffffffffffffffffffffffffffffffff1673ffffffffffffffffffffffffffffffffffffffff16815260200190815260200160002054146107d757600080fd5b60006107e3600861133e565b90506107ef600861134c565b80600960003373ffffffffffffffffffffffffffffffffffffffff1673ffffffffffffffffffffffffffffffffffffffff16815260200190815260200160002060008473ffffffffffffffffffffffffffffffffffffffff1673ffffffffffffffffffffffffffffffffffffffff1681526020019081526020016000208190555061087a3382611362565b61094b81600a60008573ffffffffffffffffffffffffffffffffffffffff1673ffffffffffffffffffffffffffffffffffffffff16815260200190815260200160002080546108c890612c4b565b80601f01602080910402602001604051908101604052809291908181526020018280546108f490612c4b565b80156109415780601f1061091657610100808354040283529160200191610941565b820191906000526020600020905b81548152906001019060200180831161092457829003601f168201915b5050505050611380565b5050565b61096a83838360405180602001604052806000815250610d40565b505050565b61098061097a610f81565b82611042565b6109bf576040517f08c379a00000000000000000000000000000000000000000000000000000000081526004016109b6906129d5565b60405180910390fd5b6109c8816113f4565b50565b6000806002600084815260200190815260200160002060009054906101000a900473ffffffffffffffffffffffffffffffffffffffff169050600073ffffffffffffffffffffffffffffffffffffffff168173ffffffffffffffffffffffffffffffffffffffff161415610a74576040517f08c379a0000000000000000000000000000000000000000000000000000000008152600401610a6b90612995565b60405180910390fd5b80915050919050565b6009602052816000526040600020602052806000526040600020600091509150505481565b610aaa611400565b80600a60008473ffffffffffffffffffffffffffffffffffffffff1673ffffffffffffffffffffffffffffffffffffffff1681526020019081526020016000209080519060200190610afd929190612021565b505050565b60008073ffffffffffffffffffffffffffffffffffffffff168273ffffffffffffffffffffffffffffffffffffffff161415610b73576040517f08c379a0000000000000000000000000000000000000000000000000000000008152600401610b6a906128f5565b60405180910390fd5b600360008373ffffffffffffffffffffffffffffffffffffffff1673ffffffffffffffffffffffffffffffffffffffff168152602001908152602001600020549050919050565b610bc2611400565b610bcc600061147e565b565b6000600760009054906101000a900473ffffffffffffffffffffffffffffffffffffffff16905090565b600a6020528060005260406000206000915090508054610c1790612c4b565b80601f0160208091040260200160405190810160405280929190818152602001828054610c4390612c4b565b8015610c905780601f10610c6557610100808354040283529160200191610c90565b820191906000526020600020905b815481529060010190602001808311610c7357829003601f168201915b505050505081565b606060018054610ca790612c4b565b80601f0160208091040260200160405190810160405280929190818152602001828054610cd390612c4b565b8015610d205780601f10610cf557610100808354040283529160200191610d20565b820191906000526020600020905b815481529060010190602001808311610d0357829003601f168201915b5050505050905090565b610d3c610d35610f81565b8383611544565b5050565b610d51610d4b610f81565b83611042565b610d90576040517f08c379a0000000000000000000000000000000000000000000000000000000008152600401610d87906129d5565b60405180910390fd5b610d9c848484846116b1565b50505050565b6060610dad8261170d565b9050919050565b6000600560008473ffffffffffffffffffffffffffffffffffffffff1673ffffffffffffffffffffffffffffffffffffffff16815260200190815260200160002060008373ffffffffffffffffffffffffffffffffffffffff1673ffffffffffffffffffffffffffffffffffffffff16815260200190815260200160002060009054906101000a900460ff16905092915050565b610e50611400565b600073ffffffffffffffffffffffffffffffffffffffff168173ffffffffffffffffffffffffffffffffffffffff161415610ec0576040517f08c379a0000000000000000000000000000000000000000000000000000000008152600401610eb790612855565b60405180910390fd5b610ec98161147e565b50565b60007f01ffc9a7000000000000000000000000000000000000000000000000000000007bffffffffffffffffffffffffffffffffffffffffffffffffffffffff1916827bffffffffffffffffffffffffffffffffffffffffffffffffffffffff1916149050919050565b610f3f81611820565b610f7e576040517f08c379a0000000000000000000000000000000000000000000000000000000008152600401610f7590612995565b60405180910390fd5b50565b600033905090565b816004600083815260200190815260200160002060006101000a81548173ffffffffffffffffffffffffffffffffffffffff021916908373ffffffffffffffffffffffffffffffffffffffff160217905550808273ffffffffffffffffffffffffffffffffffffffff16610ffc836109cb565b73ffffffffffffffffffffffffffffffffffffffff167f8c5be1e5ebec7d5bd14f71427d1e84f3dd0314c0f7b2291e5b200ac8c7c3b92560405160405180910390a45050565b60008061104e836109cb565b90508073ffffffffffffffffffffffffffffffffffffffff168473ffffffffffffffffffffffffffffffffffffffff161480611090575061108f8185610db4565b5b806110ce57508373ffffffffffffffffffffffffffffffffffffffff166110b684610590565b73ffffffffffffffffffffffffffffffffffffffff16145b91505092915050565b8273ffffffffffffffffffffffffffffffffffffffff166110f7826109cb565b73ffffffffffffffffffffffffffffffffffffffff161461114d576040517f08c379a000000000000000000000000000000000000000000000000000000000815260040161114490612875565b60405180910390fd5b600073ffffffffffffffffffffffffffffffffffffffff168273ffffffffffffffffffffffffffffffffffffffff1614156111bd576040517f08c379a00000000000000000000000000000000000000000000000000000000081526004016111b4906128b5565b60405180910390fd5b6111c883838361188c565b6111d3600082610f89565b6001600360008573ffffffffffffffffffffffffffffffffffffffff1673ffffffffffffffffffffffffffffffffffffffff16815260200190815260200160002060008282546112239190612b61565b925050819055506001600360008473ffffffffffffffffffffffffffffffffffffffff1673ffffffffffffffffffffffffffffffffffffffff168152602001908152602001600020600082825461127a9190612ada565b92505081905550816002600083815260200190815260200160002060006101000a81548173ffffffffffffffffffffffffffffffffffffffff021916908373ffffffffffffffffffffffffffffffffffffffff160217905550808273ffffffffffffffffffffffffffffffffffffffff168473ffffffffffffffffffffffffffffffffffffffff167fddf252ad1be2c89b69c2b068fc378daa952ba7f163c4a11628f55a4df523b3ef60405160405180910390a4611339838383611891565b505050565b600081600001549050919050565b6001816000016000828254019250508190555050565b61137c828260405180602001604052806000815250611896565b5050565b61138982611820565b6113c8576040517f08c379a00000000000000000000000000000000000000000000000000000000081526004016113bf90612915565b60405180910390fd5b806006600084815260200190815260200160002090805190602001906113ef929190612021565b505050565b6113fd816118f1565b50565b611408610f81565b73ffffffffffffffffffffffffffffffffffffffff16611426610bce565b73ffffffffffffffffffffffffffffffffffffffff161461147c576040517f08c379a000000000000000000000000000000000000000000000000000000000815260040161147390612975565b60405180910390fd5b565b6000600760009054906101000a900473ffffffffffffffffffffffffffffffffffffffff16905081600760006101000a81548173ffffffffffffffffffffffffffffffffffffffff021916908373ffffffffffffffffffffffffffffffffffffffff1602179055508173ffffffffffffffffffffffffffffffffffffffff168173ffffffffffffffffffffffffffffffffffffffff167f8be0079c531659141344cd1fd0a4f28419497f9722a3daafe3b4186f6b6457e060405160405180910390a35050565b8173ffffffffffffffffffffffffffffffffffffffff168373ffffffffffffffffffffffffffffffffffffffff1614156115b3576040517f08c379a00000000000000000000000000000000000000000000000000000000081526004016115aa906128d5565b60405180910390fd5b80600560008573ffffffffffffffffffffffffffffffffffffffff1673ffffffffffffffffffffffffffffffffffffffff16815260200190815260200160002060008473ffffffffffffffffffffffffffffffffffffffff1673ffffffffffffffffffffffffffffffffffffffff16815260200190815260200160002060006101000a81548160ff0219169083151502179055508173ffffffffffffffffffffffffffffffffffffffff168373ffffffffffffffffffffffffffffffffffffffff167f17307eab39ab6107e8899845ad3d59bd9653f200f220920489ca2b5937696c31836040516116a491906127f8565b60405180910390a3505050565b6116bc8484846110d7565b6116c884848484611944565b611707576040517f08c379a00000000000000000000000000000000000000000000000000000000081526004016116fe90612835565b60405180910390fd5b50505050565b606061171882610f36565b600060066000848152602001908152602001600020805461173890612c4b565b80601f016020809104026020016040519081016040528092919081815260200182805461176490612c4b565b80156117b15780601f10611786576101008083540402835291602001916117b1565b820191906000526020600020905b81548152906001019060200180831161179457829003601f168201915b5050505050905060006117c2611adb565b90506000815114156117d857819250505061181b565b60008251111561180d5780826040516020016117f592919061276d565b6040516020818303038152906040529250505061181b565b61181684611af2565b925050505b919050565b60008073ffffffffffffffffffffffffffffffffffffffff166002600084815260200190815260200160002060009054906101000a900473ffffffffffffffffffffffffffffffffffffffff1673ffffffffffffffffffffffffffffffffffffffff1614159050919050565b505050565b505050565b6118a08383611b5a565b6118ad6000848484611944565b6118ec576040517f08c379a00000000000000000000000000000000000000000000000000000000081526004016118e390612835565b60405180910390fd5b505050565b6118fa81611d34565b600060066000838152602001908152602001600020805461191a90612c4b565b9050146119415760066000828152602001908152602001600020600061194091906120a7565b5b50565b60006119658473ffffffffffffffffffffffffffffffffffffffff16611e51565b15611ace578373ffffffffffffffffffffffffffffffffffffffff1663150b7a0261198e610f81565b8786866040518563ffffffff1660e01b81526004016119b094939291906127ac565b602060405180830381600087803b1580156119ca57600080fd5b505af19250505080156119fb57506040513d601f19601f820116820180604052508101906119f89190612461565b60015b611a7e573d8060008114611a2b576040519150601f19603f3d011682016040523d82523d6000602084013e611a30565b606091505b50600081511415611a76576040517f08c379a0000000000000000000000000000000000000000000000000000000008152600401611a6d90612835565b60405180910390fd5b805181602001fd5b63150b7a0260e01b7bffffffffffffffffffffffffffffffffffffffffffffffffffffffff1916817bffffffffffffffffffffffffffffffffffffffffffffffffffffffff191614915050611ad3565b600190505b949350505050565b606060405180602001604052806000815250905090565b6060611afd82610f36565b6000611b07611adb565b90506000815111611b275760405180602001604052806000815250611b52565b80611b3184611e74565b604051602001611b4292919061276d565b6040516020818303038152906040525b915050919050565b600073ffffffffffffffffffffffffffffffffffffffff168273ffffffffffffffffffffffffffffffffffffffff161415611bca576040517f08c379a0000000000000000000000000000000000000000000000000000000008152600401611bc190612955565b60405180910390fd5b611bd381611820565b15611c13576040517f08c379a0000000000000000000000000000000000000000000000000000000008152600401611c0a90612895565b60405180910390fd5b611c1f6000838361188c565b6001600360008473ffffffffffffffffffffffffffffffffffffffff1673ffffffffffffffffffffffffffffffffffffffff1681526020019081526020016000206000828254611c6f9190612ada565b92505081905550816002600083815260200190815260200160002060006101000a81548173ffffffffffffffffffffffffffffffffffffffff021916908373ffffffffffffffffffffffffffffffffffffffff160217905550808273ffffffffffffffffffffffffffffffffffffffff16600073ffffffffffffffffffffffffffffffffffffffff167fddf252ad1be2c89b69c2b068fc378daa952ba7f163c4a11628f55a4df523b3ef60405160405180910390a4611d3060008383611891565b5050565b6000611d3f826109cb565b9050611d4d8160008461188c565b611d58600083610f89565b6001600360008373ffffffffffffffffffffffffffffffffffffffff1673ffffffffffffffffffffffffffffffffffffffff1681526020019081526020016000206000828254611da89190612b61565b925050819055506002600083815260200190815260200160002060006101000a81549073ffffffffffffffffffffffffffffffffffffffff021916905581600073ffffffffffffffffffffffffffffffffffffffff168273ffffffffffffffffffffffffffffffffffffffff167fddf252ad1be2c89b69c2b068fc378daa952ba7f163c4a11628f55a4df523b3ef60405160405180910390a4611e4d81600084611891565b5050565b6000808273ffffffffffffffffffffffffffffffffffffffff163b119050919050565b60606000821415611ebc576040518060400160405280600181526020017f3000000000000000000000000000000000000000000000000000000000000000815250905061201c565b600082905060005b60008214611eee578080611ed790612cae565b915050600a82611ee79190612b30565b9150611ec4565b60008167ffffffffffffffff811115611f30577f4e487b7100000000000000000000000000000000000000000000000000000000600052604160045260246000fd5b6040519080825280601f01601f191660200182016040528015611f625781602001600182028036833780820191505090505b5090505b6000851461201557600182611f7b9190612b61565b9150600a85611f8a9190612cf7565b6030611f969190612ada565b60f81b818381518110611fd2577f4e487b7100000000000000000000000000000000000000000000000000000000600052603260045260246000fd5b60200101907effffffffffffffffffffffffffffffffffffffffffffffffffffffffffffff1916908160001a905350600a8561200e9190612b30565b9450611f66565b8093505050505b919050565b82805461202d90612c4b565b90600052602060002090601f01602090048101928261204f5760008555612096565b82601f1061206857805160ff1916838001178555612096565b82800160010185558215612096579182015b8281111561209557825182559160200191906001019061207a565b5b5090506120a391906120e7565b5090565b5080546120b390612c4b565b6000825580601f106120c557506120e4565b601f0160209004906000526020600020908101906120e391906120e7565b5b50565b5b808211156121005760008160009055506001016120e8565b5090565b600061211761211284612a35565b612a10565b90508281526020810184848401111561212f57600080fd5b61213a848285612c09565b509392505050565b600061215561215084612a66565b612a10565b90508281526020810184848401111561216d57600080fd5b612178848285612c09565b509392505050565b60008135905061218f81613189565b92915050565b6000813590506121a4816131a0565b92915050565b6000813590506121b9816131b7565b92915050565b6000815190506121ce816131b7565b92915050565b600082601f8301126121e557600080fd5b81356121f5848260208601612104565b91505092915050565b600082601f83011261220f57600080fd5b813561221f848260208601612142565b91505092915050565b600081359050612237816131ce565b92915050565b60006020828403121561224f57600080fd5b600061225d84828501612180565b91505092915050565b6000806040838503121561227957600080fd5b600061228785828601612180565b925050602061229885828601612180565b9150509250929050565b6000806000606084860312156122b757600080fd5b60006122c586828701612180565b93505060206122d686828701612180565b92505060406122e786828701612228565b9150509250925092565b6000806000806080858703121561230757600080fd5b600061231587828801612180565b945050602061232687828801612180565b935050604061233787828801612228565b925050606085013567ffffffffffffffff81111561235457600080fd5b612360878288016121d4565b91505092959194509250565b6000806040838503121561237f57600080fd5b600061238d85828601612180565b925050602061239e85828601612195565b9150509250929050565b600080604083850312156123bb57600080fd5b60006123c985828601612180565b925050602083013567ffffffffffffffff8111156123e657600080fd5b6123f2858286016121fe565b9150509250929050565b6000806040838503121561240f57600080fd5b600061241d85828601612180565b925050602061242e85828601612228565b9150509250929050565b60006020828403121561244a57600080fd5b6000612458848285016121aa565b91505092915050565b60006020828403121561247357600080fd5b6000612481848285016121bf565b91505092915050565b60006020828403121561249c57600080fd5b60006124aa84828501612228565b91505092915050565b6124bc81612b95565b82525050565b6124cb81612ba7565b82525050565b60006124dc82612a97565b6124e68185612aad565b93506124f6818560208601612c18565b6124ff81612de4565b840191505092915050565b600061251582612aa2565b61251f8185612abe565b935061252f818560208601612c18565b61253881612de4565b840191505092915050565b600061254e82612aa2565b6125588185612acf565b9350612568818560208601612c18565b80840191505092915050565b6000612581603283612abe565b915061258c82612df5565b604082019050919050565b60006125a4602683612abe565b91506125af82612e44565b604082019050919050565b60006125c7602583612abe565b91506125d282612e93565b604082019050919050565b60006125ea601c83612abe565b91506125f582612ee2565b602082019050919050565b600061260d602483612abe565b915061261882612f0b565b604082019050919050565b6000612630601983612abe565b915061263b82612f5a565b602082019050919050565b6000612653602983612abe565b915061265e82612f83565b604082019050919050565b6000612676602e83612abe565b915061268182612fd2565b604082019050919050565b6000612699603e83612abe565b91506126a482613021565b604082019050919050565b60006126bc602083612abe565b91506126c782613070565b602082019050919050565b60006126df602083612abe565b91506126ea82613099565b602082019050919050565b6000612702601883612abe565b915061270d826130c2565b602082019050919050565b6000612725602183612abe565b9150612730826130eb565b604082019050919050565b6000612748602e83612abe565b91506127538261313a565b604082019050919050565b61276781612bff565b82525050565b60006127798285612543565b91506127858284612543565b91508190509392505050565b60006020820190506127a660008301846124b3565b92915050565b60006080820190506127c160008301876124b3565b6127ce60208301866124b3565b6127db604083018561275e565b81810360608301526127ed81846124d1565b905095945050505050565b600060208201905061280d60008301846124c2565b92915050565b6000602082019050818103600083015261282d818461250a565b905092915050565b6000602082019050818103600083015261284e81612574565b9050919050565b6000602082019050818103600083015261286e81612597565b9050919050565b6000602082019050818103600083015261288e816125ba565b9050919050565b600060208201905081810360008301526128ae816125dd565b9050919050565b600060208201905081810360008301526128ce81612600565b9050919050565b600060208201905081810360008301526128ee81612623565b9050919050565b6000602082019050818103600083015261290e81612646565b9050919050565b6000602082019050818103600083015261292e81612669565b9050919050565b6000602082019050818103600083015261294e8161268c565b9050919050565b6000602082019050818103600083015261296e816126af565b9050919050565b6000602082019050818103600083015261298e816126d2565b9050919050565b600060208201905081810360008301526129ae816126f5565b9050919050565b600060208201905081810360008301526129ce81612718565b9050919050565b600060208201905081810360008301526129ee8161273b565b9050919050565b6000602082019050612a0a600083018461275e565b92915050565b6000612a1a612a2b565b9050612a268282612c7d565b919050565b6000604051905090565b600067ffffffffffffffff821115612a5057612a4f612db5565b5b612a5982612de4565b9050602081019050919050565b600067ffffffffffffffff821115612a8157612a80612db5565b5b612a8a82612de4565b9050602081019050919050565b600081519050919050565b600081519050919050565b600082825260208201905092915050565b600082825260208201905092915050565b600081905092915050565b6000612ae582612bff565b9150612af083612bff565b9250827fffffffffffffffffffffffffffffffffffffffffffffffffffffffffffffffff03821115612b2557612b24612d28565b5b828201905092915050565b6000612b3b82612bff565b9150612b4683612bff565b925082612b5657612b55612d57565b5b828204905092915050565b6000612b6c82612bff565b9150612b7783612bff565b925082821015612b8a57612b89612d28565b5b828203905092915050565b6000612ba082612bdf565b9050919050565b60008115159050919050565b60007fffffffff0000000000000000000000000000000000000000000000000000000082169050919050565b600073ffffffffffffffffffffffffffffffffffffffff82169050919050565b6000819050919050565b82818337600083830152505050565b60005b83811015612c36578082015181840152602081019050612c1b565b83811115612c45576000848401525b50505050565b60006002820490506001821680612c6357607f821691505b60208210811415612c7757612c76612d86565b5b50919050565b612c8682612de4565b810181811067ffffffffffffffff82111715612ca557612ca4612db5565b5b80604052505050565b6000612cb982612bff565b91507fffffffffffffffffffffffffffffffffffffffffffffffffffffffffffffffff821415612cec57612ceb612d28565b5b600182019050919050565b6000612d0282612bff565b9150612d0d83612bff565b925082612d1d57612d1c612d57565b5b828206905092915050565b7f4e487b7100000000000000000000000000000000000000000000000000000000600052601160045260246000fd5b7f4e487b7100000000000000000000000000000000000000000000000000000000600052601260045260246000fd5b7f4e487b7100000000000000000000000000000000000000000000000000000000600052602260045260246000fd5b7f4e487b7100000000000000000000000000000000000000000000000000000000600052604160045260246000fd5b6000601f19601f8301169050919050565b7f4552433732313a207472616e7366657220746f206e6f6e20455243373231526560008201527f63656976657220696d706c656d656e7465720000000000000000000000000000602082015250565b7f4f776e61626c653a206e6577206f776e657220697320746865207a65726f206160008201527f6464726573730000000000000000000000000000000000000000000000000000602082015250565b7f4552433732313a207472616e736665722066726f6d20696e636f72726563742060008201527f6f776e6572000000000000000000000000000000000000000000000000000000602082015250565b7f4552433732313a20746f6b656e20616c7265616479206d696e74656400000000600082015250565b7f4552433732313a207472616e7366657220746f20746865207a65726f2061646460008201527f7265737300000000000000000000000000000000000000000000000000000000602082015250565b7f4552433732313a20617070726f766520746f2063616c6c657200000000000000600082015250565b7f4552433732313a2061646472657373207a65726f206973206e6f74206120766160008201527f6c6964206f776e65720000000000000000000000000000000000000000000000602082015250565b7f45524337323155524953746f726167653a2055524920736574206f66206e6f6e60008201527f6578697374656e7420746f6b656e000000000000000000000000000000000000602082015250565b7f4552433732313a20617070726f76652063616c6c6572206973206e6f7420746f60008201527f6b656e206f776e6572206e6f7220617070726f76656420666f7220616c6c0000602082015250565b7f4552433732313a206d696e7420746f20746865207a65726f2061646472657373600082015250565b7f4f776e61626c653a2063616c6c6572206973206e6f7420746865206f776e6572600082015250565b7f4552433732313a20696e76616c696420746f6b656e2049440000000000000000600082015250565b7f4552433732313a20617070726f76616c20746f2063757272656e74206f776e6560008201527f7200000000000000000000000000000000000000000000000000000000000000602082015250565b7f4552433732313a2063616c6c6572206973206e6f7420746f6b656e206f776e6560008201527f72206e6f7220617070726f766564000000000000000000000000000000000000602082015250565b61319281612b95565b811461319d57600080fd5b50565b6131a981612ba7565b81146131b457600080fd5b50565b6131c081612bb3565b81146131cb57600080fd5b50565b6131d781612bff565b81146131e257600080fd5b5056fea26469706673582212205adc8f891434033610f2e795cd027249ad597c507a5062a44db8a729bfe5362864736f6c63430008010033",
  "linkReferences": {},
  "deployedLinkReferences": {}
}